:020000040800F2
:100000005860002099020008415400085F4F000822
:100010003D540008FB090008498100080000000069
:10002000000000000000000000000000D9010008EE
:10003000530C00080000000035020008095B0008AE
:10004000B3020008B3020008B3020008B3020008BC
:10005000B3020008B3020008B3020008B3020008AC
:10006000B3020008B3020008B3020008B30200089C
:10007000B3020008B3020008B3020008B30200088C
:10008000B3020008B3020008B3020008B30200087C
:10009000B3020008B3020008B3020008B30200086C
:1000A000B3020008B3020008B3020008B30200085C
:1000B000B3020008B3020008B3020008B30200084C
:1000C000B3020008B3020008B3020008B30200083C
:1000D000B3020008B3020008B3020008B30200082C
:1000E000550C0008B3020008B3020008B302000870
:1000F000B3020008B3020008B3020008B30200080C
:10010000B3020008B3020008B3020008B3020008FB
:10011000B3020008B30200088D5C0008B3020008B7
:10012000B3020008390B0008B3020008B30200084C
:10013000B30200080000000000000000B302000845
:10014000B3020008B3020008B3020008B3020008BB
:10015000B3020008B3020008B3020008B3020008AB
:10016000B3020008B3020008B3020008B30200089B
:10017000B302000845540008B30200080000000064
:1001800000000000B30200080000000000000000B2
:10019000B30200080000000000000000ED56000857
:1001A000000000000000000000000000B302000892
:1001B000B3020008B3020008B3020008B30200084B
:1001C000B3020008DFF80CD000F02AFA004800471C
:1001D00025950008586000202C4B19680868B0E885
:1001E000F04F80F30988BFF36F8F4FF0000080F36A
:1001F000118870470000000008480068006880F31C
:1002000008884FF0000080F3148862B661B6BFF32F
:100210004F8FBFF36F8F00DF00BF00BF08ED00E01E
:10022000DFF80C00016841F470010160704700BF05
:1002300088ED00E0EFF30980BFF36F8F134B1A686E
:100240001EF0100F08BF20ED108A20E9F04F10605B
:1002500009B44FF0500080F31188BFF34F8FBFF304
:100260006F8F0AF0A5FA4FF0000080F3118809BCE7
:1002700019680868B0E8F04F1EF0100F08BFB0EC26
:10028000108A80F30988BFF36F8F7047B000002099
:10029000EFF3058070470000064880470648004796
:1002A000FEE7FEE7FEE7FEE7FEE7FEE7FEE7FEE726
:1002B000FEE7FEE7295C0008C50100082DE9F05FB4
:1002C0000546002092469B468846064681464024C5
:1002D0001BE0284641464746224600F04EF9534669
:1002E0005A46C01A914110D311461846224600F0D2
:1002F00035F92D1A67EB01084F46224601200021EF
:1003000000F02CF917EB00094E41201EA4F1010466
:10031000DFDC484631462A464346BDE8F09F40EAC6
:1003200001039B0703D009E008C9121F08C0042A73
:10033000FAD203E011F8013B00F8013B521EF9D25A
:100340007047D2B201E000F8012B491EFBD2704782
:100350000022F6E710B513460A4604461946FFF791
:10036000F0FF204610BD421E12F8013F002BFBD1CA
:1003700011F8013B02F8013B002BF9D17047421CF8
:1003800010F8011B0029FBD1801A704730B50546D3
:100390000020034600E05B1C934205D2EC5CC85C85
:1003A000201A01D1002CF6D130BD00000FB400B5E9
:1003B0008DB010A909900B9000914FF0FF300A907A
:1003C00000200C9005480690054807906A4609A849
:1003D0000F9900F0F7F80DB05DF814FBE105000887
:1003E000FF0500082DE9FF5F1D464FF0FF3BD5E9F3
:1003F000014691465F464FF00008A9697F1C0198AD
:100400008847296A824688470028F6D1BAF1FF3F1B
:100410000CD024F4C064002E19DD600614D5BAF1A6
:100420002B0F09D0BAF12D0F0ED103E0584604B0BE
:10043000BDE8F09F44F48064A9697F1C0198884757
:10044000761E8246002E02DDBAF1300F03D0B9F1DC
:10045000000F26D032E0A969761E44F400747F1C98
:10046000019888478246002E05DDBAF1780F06D044
:10047000BAF1580F03D0B9F1000F10D01EE0B9F156
:10048000000F02D0B9F1100F18D1A969761E24F41B
:1004900000747F1C019888478246102002E00820E3
:1004A00000E00A20814609E008FB0908A969761ED8
:1004B00044F400747F1C019888478246002E05DDB5
:1004C0004946504600F069F80028EDDAE9690198DC
:1004D0008847A00502D46FF00100A8E7E00725D106
:1004E000600613D5600502D5C8F1000000E0404663
:1004F00029680A1D2A600968220501D5087015E0DF
:10050000220701D5088011E008600FE02868011D6E
:1005100029600068210502D580F8008006E02107E7
:1005200002D5A0F8008001E0C0F8008038467EE7E0
:1005300030B50B46014600202022012409E021FAB3
:1005400002F59D4205D303FA02F5491B04FA02F5B0
:100550002844151EA2F10102F1DC30BD202A04DB83
:10056000203A00FA02F1002070479140C2F12003C6
:1005700020FA03F3194390407047202A04DB203A05
:1005800021FA02F00021704721FA02F3D040C2F1B3
:10059000200291400843194670473A2800D230386B
:1005A00020F02002412A01D3A2F13700884201D372
:1005B0004FF0FF307047000002681144137801606B
:1005C00018467047D1600449516104491162002105
:1005D0001161114600F03CB8B90500084506000855
:1005E000426842B1016811F8013B23B1521EC0E9D3
:1005F0000012184670470121C160881E704742688A
:100600005AB1C368016843B983688B4205D0491E5B
:10061000521CC0E90012002070474FF0FF307047B5
:10062000064C074D06E0E06840F0010394E807003F
:1006300098471034AC42F6D3FFF7C8FDF8BF000866
:1006400018C00008C0B24FF4F05100F097B9000094
:100650002DE9F34F8BB04FF0000801F10C000C4670
:100660004FF0010B46460DF1080A01906269012125
:1006700001989047051E2DD0252D2CD0216A884742
:10068000C0B16269012101989047216A884700281A
:10069000F7D1411E62690198904700E0761CA1697C
:1006A0000B988847216A88470028F7D1E1690B98A1
:1006B0008847DBE7A1690B9888470746A84201D124
:1006C000761CD3E7E1690B9888477F1C02D1B8F10B
:1006D000000F6FD046E1002762693D463946019818
:1006E00090472A2804D16269012101989047012589
:1006F000DFF884926269012101989047A0F13001EE
:100700000A290AD24F45E5DC07EB870100EB4107D8
:10071000303FDFD445F01005ECE7E90601D46FF077
:1007200000476C280AD04C2814D0682815D06A28B5
:100730000DD074281CD07A281AD01DE062690121DE
:10074000019890476C2802D045F0040514E045F06C
:1007500002050DE045F020050AE0626901210198DB
:100760009047682802D045F0080505E045F400658B
:100770006269012101989047C4E9015765283DD07D
:1007800019DC58287AD00CDC452837D004DC252821
:1007900026D0412831D131E046282FD047282CD10E
:1007A0002CE05B2877D0612828D063287CD064288F
:1007B00023D15AE0D0E06F2848D008DC66281DD04D
:1007C00067281BD0692821D06E2816D127E0702811
:1007D00045D0732868D0752847D078280DD14DE0D2
:1007E000A1690B988847054625283FF469AFE16960
:1007F0000B9888476D1C3FF46AAFB3E023466A4606
:100800006FF001000B99AFF300809EE045F04000CF
:100810006060A80723464FF0000236D43EE0E807A8
:100820007FF447AF2068011D21600068290501D5CC
:1008300006701BE7290701D5068017E7A90703D52E
:10084000F117C0E9006111E706600FE745F04000CD
:100850006060A80723464FF0080216D41EE040F659
:100860000E0125EA0100606016E045F0400060607E
:10087000A80723464FF00A0207D40FE045F04000D6
:100880006060A80708D5234610226FF001000B997D
:10089000AFF3008059E007E0234610226FF001001B
:1008A0000B99FFF79FFD50E04FF000094F464B4674
:1008B000632802D05B2806D040E0E80601D401207E
:1008C000A06001273AE062690121019890475E2803
:1008D00005D14FF0010962694946019890472169A5
:1008E00039B900210A46534643F82120491C0829FA
:1008F000FADBB0B3216969B9C11700EBD1625311BA
:100900000AEB830122F01F02821A01200B6890403B
:1009100003430B6062690121019890475D28E8D18B
:10092000B9F1000F09D00020514651F82020D243E0
:1009300041F82020401C0828F7DB02AB2246009734
:100940006FF001000B99AFF3008000280CDA401C17
:1009500008D1BBF1000F05D04FF0FF300DB0BDE85E
:10096000F08FFFE74046F9E7E90701D108F10108F8
:1009700006444FF0000B79E6CCCCCC0C7F2801D993
:10098000002208E0064A02EB5002C007127800D1AC
:10099000120902F00F020120904008407047000049
:1009A0001CBB000870B58C1810F8015B15F007032C
:1009B00001D110F8013B2A1106D110F8012B03E0F8
:1009C00010F8016B01F8016B5B1EF9D12B0705D400
:1009D0000023521E0DD401F8013BFAE710F8013B49
:1009E000CB1A921C03E013F8015B01F8015B521E65
:1009F000F9D5A142D8D3002070BD00BFFEE70000AA
:100A00000EB54FF47A700721054A0123CDE9002184
:100A100002900022CB21034801F016F90EBD000020
:100A2000E83C00205C0200200346042B15D007DCC4
:100A30007BB1012B0ED0022B0DD0032B12D10BE07A
:100A4000202B0BD0212B0AD0222B09D0232B09D10C
:100A500007E008E007E006E005E004E003E002E06C
:100A600001E000E000BF00BF002070470020704799
:100A700010B500220449054805F052FB044903481B
:100A800005F047FB002010BD98230020C012002075
:100A9000981B002070B504460D462146084805F015
:100AA00038FB074805F010FB064804602888064913
:100AB00008800648006808F093FE002070BD000022
:100AC000C012002074000020780000200C000020DC
:100AD00010B503460C460021084610BD2DE9F04133
:100AE00004460D4600260A48D0F8BC72D7F8140216
:100AF00010B10120BDE8F0812A462146044805F0E6
:100B00000FFB034805F093FB06463046F2E7000072
:100B1000C012002070B504460D46681E205C0D28EA
:100B200003D0681E205C0A2805D10021A81E21548C
:100B3000204608F0E1FE70BD10B5024800F0AAFCA6
:100B400010BD00003003002001460878103818233B
:100B5000B0FBF3F20848805CC865032A05D9086831
:100B60006FF30900001D886503E008686FF3090052
:100B70008865886D7047000070B900080146002044
:100B80008A6A8B69CBB932B1012A0DD0022A03D00F
:100B9000032A10D10EE000BFCB6A03F08073B3F1DB
:100BA000807F00D1012007E0CB6AB3F1C07F00D184
:100BB000012001E000E000BF34E08B69B3F5005F85
:100BC0001AD132B1012A07D0022A03D0032A11D147
:100BD0000AE000BF01200EE0CB6A03F08073B3F19E
:100BE000807F00D1012006E0CB6AB3F1C07F00D145
:100BF000012000E000BF15E032B1012A05D0022A31
:100C000004D0032A0CD103E000BF00BF012008E09C
:100C1000CB6A03F08073B3F1807F00D1012000E044
:100C200000BF00BF704730B50468246824F48024F6
:100C300005682C60046863608468402C04D10468F3
:100C4000A2600468E16003E00468A1600468E260F7
:100C500030BD704710B54FF4004001F00BF911485A
:100C6000007830B901200F4908700F4804F020F8CF
:100C700016E00D480068416A0C4802880088401C54
:100C80000A4B18800A4840F82210002006490968DB
:100C9000486218460088FF2802DD002019460880B7
:100CA00010BD000090000020E8030020100000208C
:100CB0006C0400207047000010B5002201B909E063
:100CC000012901D10A0205E0022901D10A0201E04D
:100CD0004FF440720E4B1B6823F440730C4C23609E
:100CE00023461B681343236023461B6823F0F80345
:100CF000236023461B68022444EAC0042343044CB7
:100D0000236023461B6843F48033236010BD00003A
:100D1000103C02401C48006800F40070B0B11A4852
:100D2000006820F400701849086000BF0846006899
:100D300040F4006008600846006820F40060086025
:100D400000BF0846006840F4007008600E48006864
:100D500000F48060B0B10C48006820F480600A495B
:100D6000086000BF0846006840F4805008600846EC
:100D7000006820F48050086000BF0846006840F416
:100D80008060086070470000003C02400A4A126818
:100D900022F44072084B1A601A46126842F00402AC
:100DA0001A601A4612684FF4803343EA00231A434C
:100DB000014B1A6070470000103C0240074A12685D
:100DC00022F44072054B1A601A4612681A601A46DD
:100DD000126842F001021A6001707047103C024034
:100DE00010B50D49096821F440710B4C2160214672
:100DF000096841F4407121602146096841F0010110
:100E00002160026000BF00BF00BFBFF36F8F00BF53
:100E100000BF00BF436010BD103C0240084A12688A
:100E200022F44072064B1A601A46126842F480722D
:100E30001A601A46126842F001021A600180704777
:100E4000103C0240084A126822F44072064B1A60B5
:100E50001A46126842F400721A601A46126842F08A
:100E600001021A6001607047103C02402A48006885
:100E700000F0100040B12948C06940F01000274937
:100E8000C8611020244908602348006800F0200051
:100E900040B12248C06940F008002049C8612020C4
:100EA0001D4908601C48006800F0400040B11B4824
:100EB000C06940F004001949C86140201649086023
:100EC0001548006800F0800040B11448C06940F047
:100ED00002001249C86180200F4908600E4800686E
:100EE00000F4807048B10D48C06940F001000B4922
:100EF000C8614FF48070084908600748006800F036
:100F0000020040B10548C06940F020000349C861B3
:100F100002200149086070470C3C0240D82B002099
:100F200070B50446002500201449C86101F0AEF8F0
:100F3000054609E0601C38B124B101F0A7F8401B58
:100F4000A04201D9032070BD0D48006800F4803034
:100F50000028EFD10A48006800F0010010B101201C
:100F6000074908600648006800F4F97018B1FFF7F7
:100F70007DFF0120E7E70020E5E70000D82B0020F7
:100F80000C3C024030B502460023002408680128CA
:100F900016D013686FF30E03D1E901052843CD681D
:100FA00028430D6928434D6928438D692843CD693D
:100FB00028430D6A28434D6A28430343136019E010
:100FC000136823F4F843D1E9070528434D6A284301
:100FD000034354686FF30E04D1E901052843CD683B
:100FE00028430D6928434D6928438D6928430443EC
:100FF00013605460002030BD0246506940EA410051
:10100000506100207047F8B506460C461546002092
:1010100000900027D4E900010843A168491E40EA76
:101020004110E16840EA412000900098306101F0F1
:101030002DF8074609E0681C38B125B101F026F803
:10104000C01BA84201D90320F8BDB06900F0200000
:101050002028F0D00020F7E770B50346154600229F
:101060000024012D1FD09A6802F070420868401ECB
:101070004E68761E40EA06168868401E46EA00263C
:10108000C868401E46EA0036088A401E46EA004606
:10109000888A401E46EA0056087E401E46EA0060E6
:1010A00002439A6022E09A6811480240C868401ED4
:1010B0000603888A401E46EA00500243DC6804F0BA
:1010C00070440868401E4E68761E40EA061688681E
:1010D000401E46EA0026088A401E46EA0046087E70
:1010E000401E46EA006004439A60DC60002070BD48
:1010F000FF0F0FFF01688969C1F3400111B10021A1
:10110000026891620168896901F0010129B90168E9
:10111000896941F0010102689161704770B5044628
:101120000D46164620688069C0F3001000283DD0A7
:1011300017E0681CA8B100F0A9FF801BA84200D8E6
:101140007DB9606C40F020006064202084F841008C
:10115000002084F8420000BF84F8400000BF012056
:1011600070BD20688069C0F340100028E1D01020D5
:101170002168C86120202168C8612046FFF7BAFFB6
:10118000206840680A49084021684860606C40F067
:1011900004006064202084F84100002084F84200AC
:1011A00000BF84F8400000BF0120D9E70020D7E746
:1011B00000E800FE2DE9F8430446894615461E4620
:1011C000DDE908781948F2B200234946009020462C
:1011D00000F02EF842463946204600F09DF810B146
:1011E0000120BDE8F883012E03D1E8B221688862AE
:1011F0000EE0C5F307202168886242463946204642
:1012000000F08AF808B10120EBE7E8B221688862B3
:101210003B46002240212046CDF8008000F022F815
:1012200008B10120DDE70020DBE70000002000809E
:10123000F0B5059C05686D684FF4806606EA545663
:1012400066F0FC2646F4C046B543C1F309064FF4E8
:101250007F0707EA02473E431E432643354306689D
:101260007560F0BD2DE9F04104460E4617461D4657
:10127000DDF8188019E0681CB8B100F007FFA0EB9A
:101280000800A84200D885B9606C40F02000606476
:10129000202084F84100002084F8420000BF84F838
:1012A000400000BF0120BDE8F08120688069304027
:1012B000B04201D1012000E00020B842DBD0002084
:1012C000F1E770B504460D4616461DE03246294644
:1012D0002046FFF723FF08B1012070BD00F0D6FEC5
:1012E000801BA84200D87DB9606C40F0200060648B
:1012F000202084F84100002084F8420000BF84F8D8
:10130000400000BF0120E8E720688069C0F340107A
:101310000028DBD00020E0E770B504460D461646F5
:101320001FE0324629462046FFF7F8FE08B10120AB
:1013300070BD681CA8B100F0A9FE801BA84200D8AF
:101340007DB9606C40F020006064202084F841008A
:10135000002084F8420000BF84F8400000BF012054
:10136000E6E720688069C0F340000028D9D000205B
:10137000DEE710B50346002000BF03E0841843F801
:101380002040401C8842F9D310BD000070B50A48C7
:101390000468001D0568001D0668344454B1082225
:1013A0000649204603F0DDFD042204491031284699
:1013B00003F0D7FD70BD0000107AFF1F5A00002017
:1013C00070B50446A56D00F061FE064694F8350040
:1013D000022808D08020606500BF002084F8340017
:1013E00000BF012070BD2068006820F01600216851
:1013F00008602068406920F0800021684861206C06
:1014000008B9A06C28B12068006820F008002168A5
:1014100008602068006820F00100216808600FE083
:1014200000F034FE801B05280AD92020606500BF2B
:10143000002084F8340000BF032084F83500D1E791
:101440002068006800F001000028E9D194F85C10E1
:101450003F208840A86000BF002084F8340000BF0F
:10146000012084F835000020BCE7014691F83500E2
:10147000022803D08020486501207047052081F8AC
:1014800035000868006820F001000A68106000203C
:10149000F3E70000F8B50446002000908C4800688F
:1014A0004FF41651B0FBF1F7A56D2E6894F85C105F
:1014B00008208840304098B12068006800F004009F
:1014C00070B12068006820F004002168086094F87A
:1014D0005C1008208840A860606D40F001006065E5
:1014E00094F85C1001208840304068B12068406961
:1014F00000F0800040B194F85C1001208840A860A2
:10150000606D40F00200606594F85C100420884033
:10151000304068B12068006800F0020040B194F8E3
:101520005C1004208840A860606D40F00400606595
:1015300094F85C1010208840304078B32068006830
:1015400000F0080050B394F85C1010208840A860A8
:101550002068006800F4802080B12068006800F4F2
:10156000002028B9206CC8B12046216C884715E0BE
:10157000A06C98B12046A16C88470FE020680068F5
:1015800000F4807028B92068006820F00800216805
:101590000860206C10B12046216C884794F85C10DC
:1015A000202088403040002865D02068006800F086
:1015B000100000285FD094F85C1020208840A860BC
:1015C00094F83500052828D12068006820F016001E
:1015D000216808602068406920F080002168486127
:1015E000206C08B9A06C28B12068006820F00800C1
:1015F0002168086094F85C103F208840A86000BF14
:10160000002084F8340000BF012084F83500206DEC
:1016100010B12046216D8847F8BD2068006800F4AD
:10162000802080B12068006800F4002028B9606C38
:1016300010B12046616C88471DE0E06BD8B12046B0
:10164000E16B884717E02068006800F4807068B993
:101650002068006820F010002168086000BF0020AA
:1016600084F8340000BF012084F83500E06B10B12D
:101670002046E16B8847606D38B3606D00F0010073
:10168000F0B1052084F835002068006820F00100E2
:101690002168086000BF0098401C0090B84200D943
:1016A00005E02068006800F001000028F3D100BFC9
:1016B00000BF002084F8340000BF012084F835000A
:1016C000E06C10B12046E16C884700BFA4E7000041
:1016D000AC0000202DE9F0410446002500F0D6FCC6
:1016E000074614B90120BDE8F081606A00B100BF6F
:1016F00000BF002084F8340000BF022084F83500C9
:101700002068006820F00100216808600AE000F00D
:10171000BDFCC01B052805D920206065032084F886
:101720003500E0E72068006800F001000028EED1F5
:101730002068056821480540D4E901010843E168B3
:1017400008432169084361690843A1690843E169C5
:101750000843216A08430543606A042803D1D4E999
:101760000B0108430543206805602068456925F0A2
:101770000705606A0543606A04280DD1A06A054325
:10178000E06A48B12046FFF7F9F928B140206065CA
:10179000012084F83500A6E7206845612046FFF760
:1017A000D3F9064694F85C103F208840B0600020D2
:1017B0006065012084F83500002094E73F8010F038
:1017C0002DE9F04704460D4616461F464FF0000827
:1017D000D4F8589000BF94F83400012802D10220B8
:1017E000BDE8F087012084F8340000BF94F835008C
:1017F000012825D1022084F83500002060653B4691
:10180000324629462046FFF70EFA94F85C103F2036
:101810008840C9F808002068006840F01600216878
:101820000860206C28B12068006840F0080021683A
:1018300008602068006840F001002168086006E048
:1018400000BF002084F8340000BF4FF0020840467B
:10185000C6E7000070B5044600F018FC06462546B1
:10186000681C10B104480078054400BF00F00EFC6D
:10187000801BA842FAD370BDA80000202DE9F041DA
:1018800004460E460127002500BF2548007E01289A
:1018900002D10220BDE8F08101202149087600BF75
:1018A0004CF25030FFF73CFB0746002F31D1401E71
:1018B0003060206801280FD1207C6168FFF766FA4C
:1018C0004CF25030FFF72CFB07461648006820F01A
:1018D0000400144908601AE0A56812E0217C28463B
:1018E000FFF7EAF94CF25030FFF71AFB07460D48B4
:1018F000006820F0FA000B4908600FB1356005E080
:101900006D1CD4E902100844A842E7D800BFFFF7D5
:1019100001FA00BF00200249087600BF3846B9E747
:10192000D82B0020103C02400348006840F00040E3
:101930000149086000207047103C02402DE9F04149
:1019400006460F4614461D464FF0010800BF1F48CB
:10195000007E012802D10220BDE8F08101201B4950
:10196000087600BF4CF25030FFF7DAFA8046B8F143
:10197000000F23D126B9E1B23846FFF71FFA12E073
:10198000012E04D1A1B23846FFF748FA0BE0022E2F
:1019900004D121463846FFF755FA04E022462B468B
:1019A0003846FFF71DFA4CF25030FFF7B9FA80467F
:1019B0000748006820F001000549086000BF0020CA
:1019C0000249087600BF4046C6E70000D82B002039
:1019D000103C024000200949096801F0004159B15A
:1019E0000749064A0C3A1160064911600349096823
:1019F00001F0004101B1012070470000103C02409D
:101A000023016745AB89EFCD00B587B0142102A84B
:101A1000FEF79EFC3848006808B107B000BD012001
:101A20003549086000BF002001903448006840F04C
:101A30000100324908600846006800F0010001908A
:101A400000BF00BF4FF68370029002200390002079
:101A50000490032005900C20069002A9284800F06D
:101A600017FA48F2331002900220039000200490ED
:101A7000032005900C20069002A9224800F008FAE5
:101A80004FF63F00029002200390002004900320B4
:101A900005900C20069002A91B4800F0F9F94CF2C1
:101AA0000370029002200390002004900320059010
:101AB0000C20069002A9154800F0EAF930200290A7
:101AC0000220039000200490032005900C20069033
:101AD00002A90F4800F0DCF9802002900220039058
:101AE00000200490032005900C20069002A90948CC
:101AF00000F0CEF900BF90E7940000203838024093
:101B0000001002400018024000140240000C024085
:101B10000008024000000240024692F841002028DE
:101B20002DD100BF92F84000012801D1022070475A
:101B3000012082F8400000BF242082F84100106894
:101B4000006820F00100136818601068006820F435
:101B500080501368186010680068084313681860A4
:101B60001068006840F0010013681860202082F8B7
:101B7000410000BF002082F8400000BFD7E70220EC
:101B8000D5E7000010B504460CB9012010BD94F84B
:101B9000410028B9002084F84000204600F024F9D4
:101BA000242084F841002068006820F001002168AA
:101BB0000860606820F070602168086120688068B3
:101BC00020F4004021688860E068012805D1A06801
:101BD00040F400402168886004E0A06840F40440BC
:101BE00021688860E068022802D18002216848608C
:101BF0002068406813490843216848602068C0682D
:101C000020F400402168C860D4E904010843A169B8
:101C100040EA01202168C860D4E90701084321682F
:101C200008602068006840F001002168086000201A
:101C30006064202084F841000020206384F8420082
:101C400000BFA3E7008000022DE9FC5F044689463F
:101C500092469B46DDE90C780E9E94F841002028C0
:101C60007ED117B1B8F1000F05D14FF40070606458
:101C70000120BDE8FC9F00BF94F84000012801D17D
:101C80000220F6E7012084F8400000BF00F0FEF9D2
:101C9000054619230122D10320460095FFF7E2FAF9
:101CA00008B10120E5E7222084F84100402084F8B3
:101CB0004200002060646762A4F82A8060635B468B
:101CC000524649462046CDE90065FFF773FA30B128
:101CD00000BF002084F8400000BF0120C9E7608DEC
:101CE000FF280CD9FF2020853D48009094F828203B
:101CF0004FF0807349462046FFF79AFA0BE0608D5B
:101D000020853748009094F828204FF0007349460A
:101D10002046FFF78DFA00BF3346002204212046FB
:101D20000095FFF79FFA08B10120A2E72068406AFA
:101D3000616A0870606A401C6062208D401E2085C8
:101D4000608D401E6085608D48B3208D38BB334662
:101D50000022802120460095FFF784FA18B100E0A8
:101D60003CE0012085E7608DFF280CD9FF2020850D
:101D70000020009094F828204FF0807349462046B8
:101D8000FFF756FA0BE0608D20850020009094F854
:101D900028204FF0007349462046FFF749FA608D2E
:101DA0000028B9D12A4631462046FFF78AFA08B101
:101DB00001205EE720202168C86120684068094949
:101DC000084021684860202084F84100002084F801
:101DD000420000BF84F8400000BF4AE7022048E705
:101DE0000024008000E800FE10B586B004461421EF
:101DF00001A8FEF7ADFA1B492068884230D100BF28
:101E0000002000901848006840F00800164908605B
:101E10000846006800F00800009000BF00BF4FF4C3
:101E20004050019012200290012003900320049062
:101E30000420059001A90D4800F02AF800BF0020F9
:101E4000009009481030006840F080700649103159
:101E500008600846006800F08070009000BF00BF76
:101E600006B010BD0060004030380240000C024057
:101E70007047000010B5044604480068204020B1B7
:101E8000024804602046FFF7F3FF10BD143C0140F8
:101E9000F8B502460B460025002400200021D7E0BB
:101EA000012606FA01F51E6806EA0504AC4273D164
:101EB0005E68012E08D05E68022E05D05E68112E85
:101EC00002D05E68122E13D190684F000326BE40E8
:101ED000B0434F00DE68BE4030439060506801263A
:101EE0008E40B0431E79C6F300168E4030435060DA
:101EF000D0684F000326BE40B0434F009E68BE40EE
:101F00003043D0605E68022E02D05E68122E13D17C
:101F1000CF0802F1200656F827004E07F70E0F26CD
:101F2000BE40B0434F07FF0E1E69BE403043CF088E
:101F300002F1200646F8270010684F000326BE4035
:101F4000B0431E7906F003064F00BE4030431060D8
:101F50005E6806F08056B6F1805F78D100BF00263B
:101F600000963D4E366846F480463B4F3E603E4606
:101F7000366806F48046009600BF00BF374E8F08D3
:101F800056F827008E07370F0F26BE40B043344E59
:101F9000B24202D100261FE059E0324EB24201D1D6
:101FA000012619E0304EB24201D1022614E02F4E34
:101FB000B24201D103260FE02D4EB24201D10426D8
:101FC0000AE02C4EB24201D1052605E02A4EB2426B
:101FD00001D1062600E007268F073F0FBE403043A1
:101FE0001E4E8F0846F82700244E3068A0435E68D6
:101FF00006F48036B6F5803F00D120431F4E306096
:10200000361D3068A0435E6806F40036B6F5003F22
:1020100000D12043194E361D3060361D3068A04374
:102020005E6806F48016B6F5801F00D12043134E7B
:1020300008363060361D3068A0435E6806F400162E
:10204000B6F5001F00D120430C4E0C363060491C01
:102050001029FFF425AFF8BD44380240083801408C
:10206000000002400004024000080240000C024050
:10207000001002400014024000180240003C0140E1
:102080000AB1816101E00B04836170470148006877
:1020900070470000A0000020034800680349097849
:1020A0000844014908607047A0000020A8000020F3
:1020B00010B50D48006840F400700B4908600846F0
:1020C000006840F4806008600846006840F4807052
:1020D0000860032000F0EAF8002000F007F800F0A4
:1020E0004BF8002010BD0000003C024070B588B0E5
:1020F00004460025002600222146362000F098F8EC
:10210000362000F085F800BF0020019016480068D6
:1021100040F01000144908600846006800F0100004
:10212000019000BF00BF02A903A801F001FD01F06A
:1021300027FD45000D48B5FBF0F0461E0C480D4943
:10214000086040F2E7310B48C16046600021016140
:10215000816002F051FD20B9064802F0BEFD08B0D2
:1021600070BD0120FBE700004038024040420F00F4
:1021700000100040982B002008B500BF0020009000
:102180001148006840F480400F4908600846006824
:1021900000F48040009000BF00BF00BF002000900E
:1021A000081F006840F08050091F0860084600685A
:1021B00000F08050009000BF00BF00220F21901E51
:1021C00000F036F808BD00004438024010B5014662
:1021D0000846002817DB00F01F0301229A400B4B32
:1021E000440943F8242000BF00BF00BFBFF34F8F56
:1021F00000BF00BF00BF00BF00BF00BFBFF36F8FB5
:1022000000BF00BF00BF00BF10BD000080E100E0C4
:1022100001460846002809DB00F01F0301229A400E
:1022200043099B0003F1E023C3F8002100BF70477E
:102230002DE9F05F80460D461646002706F00AF8A5
:10224000074639462A46334601F00700C0F1070A1F
:10225000BAF1040F02D94FF0040A01E0C0F1070AF5
:10226000D14600F1040ABAF1070F02D24FF0000A7A
:1022700001E0A0F1030AD4464FF0010A0AFA09FA74
:10228000AAF1010A0AEA020A0AFA0CFA4FF0010B53
:102290000BFA0CFBABF1010B0BEA030B4AEA0B0444
:1022A0002146404605F0DEFFBDE8F09F00BF00F08C
:1022B0000702064B19684FF6FF031940044B0B4306
:1022C00043EA0221014B196000BF70470CED00E0AA
:1022D0000000FA0501460A680120C1F8FC0300204D
:1022E00081F8F403906940F000609061506D024BFA
:1022F00018435065002070470300001070B5044675
:102300000D4615B1012D2CD116E0206A38B103F02D
:1023100015FC1548006820F0060013490860206885
:10232000D0F8000E20F001002168C1F8000ED4F8AA
:10233000040404F04EFC14E02068D0F8000E40F0D5
:1023400001002168C1F8000ED4F8040404F0D1FCA7
:10235000206A28B10448006840F00600024908607D
:1023600000BF00BF70BD000010ED00E00246106825
:10237000416200207047F0B5034615461868446A6C
:1023800021B944EA05401E68B06219E01868806A05
:1023900004EB1044002208E0186800F5827050F841
:1023A000220004EB1044501CC2B2481E9042F3D8E5
:1023B00044EA0547186800F582704E1E40F8267002
:1023C0000020F0BD10B50446D4F8040404F02EFB40
:1023D00010BD70B504460D46C5EBC50304F13C01C4
:1023E00001EB8301CA682946D4F8040404F062FAB8
:1023F00070BD70B504460D46C5EBC50304F5FE710E
:1024000001EB8301CA682946D4F8040404F0C5FA34
:1024100070BD10B50446D4F8040404F00AFB10BDE6
:1024200070B504460E4606F0800080280AD106F0FA
:102430000F00C0EBC00104F13C0000EB810501205E
:10244000687009E006F00F00C0EBC00104F5FE70F3
:1024500000EB81050020687006F00F00287000BFB7
:1024600094F8BC03012801D1022070BD012084F83A
:10247000BC0300BF2946206804F0E8FF00BF00202D
:1024800084F8BC0300BF00BFEFE770B504460E46FA
:1024900006F00F006168884201D9012070BD06F086
:1024A000800080280AD106F00F00C0EBC00104F1C3
:1024B0003C0000EB81050120687009E006F00F0088
:1024C000C0EBC00104F5FE7000EB810500206870D0
:1024D0000020A87006F00F00287000BF94F8BC031D
:1024E000012801D10220D9E7012084F8BC0300BFF4
:1024F0002946206805F088FA00BF002084F8BC0354
:1025000000BF00BFCAE7024601F00F00C0EBC003E6
:1025100002F5FE7000EB8300806970472DE9F047FB
:1025200005460E4690461F464FF0000906F0800013
:1025300080280AD106F00F00C0EBC00105F13C0075
:1025400000EB81040120607009E006F00F00C0EB91
:10255000C00105F5FE7000EB81040020607006F0FC
:102560000F002070C4F80880E770607808B1207808
:10257000E080022F01D10020207100BF95F8BC033C
:10258000012802D10220BDE8F087012085F8BC03B4
:1025900000BF2146286804F075FE00BF002085F8C2
:1025A000BC0300BF4846EEE72DE9F04104460E4665
:1025B0001746984606F00F00C0EBC00104F5FE7008
:1025C00000EB8105EF60C5F814800020A8616870F9
:1025D00006F00F0028702069012800D12F6106F055
:1025E0000F0028B9227C2946206805F0E9F804E0AC
:1025F000227C2946206805F09BFA0020BDE8F08186
:1026000070B504460D4605F00F006168884201D997
:10261000012070BD05F0800080280AD105F00F0070
:10262000C0EBC00104F13C0000EB8106012070709A
:1026300007E0C5EBC50104F5FE7000EB8106002044
:1026400070700120B07005F00F00307000BF94F87A
:10265000BC03012801D10220DBE7012084F8BC0380
:1026600000BF3146206805F016FA05F00F0028B9C2
:10267000217C04F57172206805F08EF900BF0020FE
:1026800084F8BC0300BF00BFC3E72DE9F041044656
:102690000E461746984606F00F00C0EBC00104F145
:1026A0003C0000EB8105EF60C5F814800020A861B4
:1026B0000120687006F00F0028702069012800D101
:1026C0002F6106F00F0028B9227C2946206805F00A
:1026D00077F804E0227C2946206805F029FA0020DA
:1026E000BDE8F0812DE9FE4F044620680290029D6E
:1026F000206805F008FC00287DD1206805F042FC28
:1027000008B9BDE8FE8F206805F03CFC00F002002F
:10271000022805D12068406900F002002168486164
:10272000206805F02FFC00F01000102846D120682A
:10273000806920F01000216888610298D0F820900C
:1027400009F00F00C0EBC00104F5FE7000EB810B37
:10275000C9F3434002281AD147F6F07009EA000095
:1027600030B3C9F30A12DBF80C10029805F00FFC25
:10277000C9F30A11DBF80C000844CBF80C00C9F3CC
:102780000A11DBF818000844CBF8180010E0C9F370
:10279000434006280CD1082204F57171029805F017
:1027A000F6FBC9F30A11DBF818000844CBF818004F
:1027B0002068806940F0100021688861206805F079
:1027C000E1FB00F40020B0F5002F52D10026206874
:1027D00005F0A8FB824649E00AF00100E8B3F1B237
:1027E000206805F0C2FB804608F0010058B10121C5
:1027F00005F5306000E043E200EB461081603146B1
:10280000204602F059FE08F00800082809D10821E6
:1028100005F5306000EB461081603146204602F03D
:1028200019FE08F01000102805D1102105F53060C0
:1028300000EB4610816008F02000202805D12021FF
:1028400005F5306000EB4610816008F40050B0F5EB
:10285000005F08D14FF4005100E004E005F530605E
:1028600000EB46108160761C4FEA5A0ABAF1000F5D
:10287000B2D1206805F086FB00F48020B0F5802FEF
:102880007ED1206805F044FB8246002683E00AF0F2
:10289000010000287CD0F1B2206805F04DFB804695
:1028A00008F00100F0B306F00F010120884001900C
:1028B00040F634004159019821EA000040F6340105
:1028C0004851012105F5106000EB46108160206938
:1028D000012824D1C6EBC60104F13C0000EB8100C5
:1028E000C6EBC602C16804F13C0000EB82008068C0
:1028F0000144C6EBC60204F13C0000EB8200C1605B
:102900006EB9C6EBC60104F13C0000EB81004069E2
:1029100028B904F571720121206805F03DF8F1B283
:10292000204600E001E0FFF754FD08F00800082809
:1029300005D1082105F5106000EB4610816008F014
:102940001000102805D1102105F5106000EB46108D
:10295000816008F04000402805D1402105F5106055
:1029600000EB4610816008F00200022805D1022128
:1029700005F5106000EB4610816008F0800001E072
:102980000DE005E0802803D13146204602F052FEDA
:10299000761C4FEA5A0ABAF1000F7FF478AF20682C
:1029A00005F0F0FA00F00040B0F1004F1CD140F605
:1029B0000400405920F0010140F60400415194F810
:1029C000F403012807D1002084F8F40300212046F5
:1029D000FFF794FC02E0204600F0D2FA206840693C
:1029E00000F0004021684861206805F0CBFA00F44F
:1029F0000060B0F5006F0ED140F60800405900F0BD
:102A0000010010B1204600F013FB2068406900F47B
:102A1000006021684861206805F0B4FA00F00060A9
:102A2000B0F1006F19D12068406900F000602168A2
:102A3000486194F8F40368B9012084F8F40320682D
:102A4000406DC0F38300C4F8F80301212046FFF76E
:102A500055FC02E0204600F0EBFA206805F092FAFF
:102A600000F48050B0F5805F7DD140F604004059FD
:102A700020F0010140F6040041511021206805F0CA
:102A800017FA00273EE04FF67F3105F5106000EBA6
:102A90004710816005F5106000EB4710006820F4D6
:102AA000001105F5106000EB4710016005F510609E
:102AB00000EB4710006840F0006105F5106000EB86
:102AC000471001604FF67F3105F5306000EB47108D
:102AD000816005F5306000EB4710006820F40011BC
:102AE00005F5306000EB4710016005F5306000EB44
:102AF0004710006840F0006105F5306000EB4710BA
:102B000001607F1C6068B842BDD840F61C00405987
:102B100040F0011140F61C004151206B70B1D5F816
:102B2000840840F00B01C5F8841840F64400405971
:102B300040F00B0140F6440041510FE040F6140014
:102B4000405942F22B01084340F614014851081F36
:102B5000405940F00B014FF401604151D5F8000895
:102B600020F4FE6000E00DE0C5F80008217C04F5CB
:102B70007172206804F010FF2068406900F48050F2
:102B800021684861206805F0FDF900F40050B0F5B7
:102B9000005F17D1206804F0DDFB206805F0A0F984
:102BA000E06000F0E7FF0090227B2068009905F0CC
:102BB00039FA204600F0CCF92068406900F4005052
:102BC00021684861206805F0DDF900F00800082858
:102BD00008D1204600F0DBF92068406900F00800C9
:102BE00021684861206805F0CDF900F48010B0F547
:102BF000801F0AD100263146204600F043F82068A5
:102C0000406900F4801021684861206805F0BAF935
:102C100000F40010B0F5001F0AD10026314620460E
:102C200000F039F82068406900F40010216848611C
:102C3000206805F0A7F900F08040B0F1804F08D17E
:102C40002046FFF7BFFB2068406900F08040216804
:102C50004861206805F096F900F0040004280FD1BF
:102C60002068D0F8049009F00400042802D120461E
:102C7000FFF7CFFB2068406840EA09002168486000
:102C800000BF3EE570B504460D462946D4F804045D
:102C900003F03CFF70BD70B504460D462946D4F8DC
:102CA000040403F036FF70BD70B58AB0044614B951
:102CB00001200AB070BD266894F8BD0328B9002031
:102CC00084F8BC03204600F0A9F8032084F8BD0373
:102CD000F06B00F4807008B900212161206804F0D5
:102CE00067FD282204F110016846FDF718FB94E8FF
:102CF0000F0004F043FB20B1022084F8BD03012043
:102D0000D7E70021206805F053F9002531E00121C3
:102D1000C5EBC50204F13C0000EB82004170C5EB3D
:102D2000C50104F13C0000F82150C5EBC50100EBE2
:102D30008100C5800021C5EBC50204F13C0000EB19
:102D40008200C170C5EBC50204F13C0000EB8200BB
:102D50008160C5EBC50204F13C0000EB8200C1605C
:102D6000C5EBC50204F13C0000EB82004161681C28
:102D7000C5B26068A842CAD800252AE00021C5EB88
:102D8000C50204F5FE7000EB82004170C5EBC50181
:102D900004F5FE7000F821500021C5EBC50200EBE0
:102DA0008200C170C5EBC50204F5FE7000EB820025
:102DB0008160C5EBC50204F5FE7000EB8200C160C6
:102DC000C5EBC50204F5FE7000EB82004161681C92
:102DD000C5B26068A842D1D8282204F11001684623
:102DE000FDF79DFA94E80F0004F0F6FB20B10220F5
:102DF00084F8BD0301205CE7002084F8380001203E
:102E000084F8BD03606A012802D12046FFF762FA08
:102E1000206804F0D1FB00204BE7000010B586B01D
:102E20000446142101A8FDF793FA4449206888421A
:102E30007ED100BF002000904148006840F00200B1
:102E40003F4908600846006800F00200009000BF9B
:102E500000BF00BF002000900846006840F004005A
:102E600008600846006800F00400009000BF00BF42
:102E700000BF002000900846006840F00100086094
:102E80000846006800F00100009000BF00BF43F258
:102E9000274001900220029000200390032004901C
:102EA0000A20059001A92748FEF7F2FF0D200190A6
:102EB0000220029000200390032004900A20059035
:102EC00001A92148FEF7E4FF28200190022002908A
:102ED00000200390032004900A20059001A91B48BC
:102EE000FEF7D6FF00BF002000901548006840F0B4
:102EF0000050134908600846006800F00050009038
:102F000000BF00BF00BF002000900846006840F0EE
:102F1000804008600846006800F08040009000BFD4
:102F200000BF002205214D20FFF782F94D2000E06F
:102F300001E0FFF76DF906B010BD0000000004408D
:102F40003038024000040240000802400000024005
:102F500070B504460125E06808B9002506E0E06880
:102F6000022801D1012501E0FDF7A4FE2946D4F88D
:102F7000040403F04AFED4F8040403F0FDFD70BD20
:102F800010B50446D4F8040403F023FE10BD10B5B8
:102F90000446D4F8040403F027FE10BD70B50446BF
:102FA0000D4600BF94F8BC03012801D1022070BD7A
:102FB000012084F8BC0300BF84F8385029462068FB
:102FC00005F011F800BF002084F8BC0300BF00BF6B
:102FD000EDE710B5044604F57171D4F8040403F06C
:102FE0002BFE10BD70B50446256800BF94F8BC03E5
:102FF000012801D1022070BD012084F8BC0300BF6C
:10300000A06A012806D1A069012803D0A86B40F46A
:103010008030A863206804F0BFFA206804F02AFF1B
:1030200000BF002084F8BC0300BF00BFE3E700003E
:1030300010B50446D4F8040403F05BFE2068D0F811
:10304000000E40F001002168C1F8000E206A28B18E
:103050000348006840F006000149086010BD000008
:1030600010ED00E038B5002400BF002000901D489E
:10307000006840F080501B4908600846006800F076
:103080008050009000BF00BF012017490864FEF780
:10309000FDFF044607E0FEF7F9FF001BB0F57A7F5D
:1030A00001D9032038BD1148406800F48030B0F5E4
:1030B000803FF0D101200C494864FEF7E7FF044649
:1030C00007E0FEF7E3FF001BB0F57A7F01D903208C
:1030D000E8E70648406800F40030B0F5003FF0D162
:1030E0000020DFE74038024000000E420070004040
:1030F000F0B5044600220020002100250026002310
:10310000012C78D0022C77D0042C02D0082C74D15A
:1031100000E000BFCB4F3D6805F47005C5F3130711
:10312000002F6BD12F150D2F68D2DFE807F0073580
:103130006890369C9C9C699C9C9C9200C14F883FE7
:103140003F6807F480074FB9BE4F3F1F3F6807F045
:103150003F07DFF8F4C2BCFBF7F108E0B94F3F1FAF
:103160003F6807F03F07DFF8E4C2BCFBF7F1B54F5B
:103170003F1F3F68C7F30362B24F3F1F3F68C7F36B
:1031800088174F43B7FBF2F0AE4F3F68C7F30427F1
:103190007A1CB0FBF2F067E000BFAA4F883F3F689F
:1031A00007F480074FB9A74F083F3F6807F03F0774
:1031B000DFF894C2BCFBF7F108E0A24F083F3F687C
:1031C00007F03F07DFF884C2BCFBF7F19D4F083FD3
:1031D0003F68C7F303629B4F083F3F68C7F38817F8
:1031E0004F43B7FBF2F0974F3F6807F01F077A1C79
:1031F000B0FBF2F038E039E0ADE021E133E000BFB0
:10320000904F883F3F6807F480074FB98D4F883F44
:103210003F6807F03F07DFF830C2BCFBF7F108E07A
:10322000884F883F3F6807F03F07DFF820C2BCFBAC
:10323000F7F1844F883F3F68C7F30272814F883FA0
:103240003F68C7F388174F43B7FBF2F00CE08048A4
:103250000AE07C4F883F3F6807F480070FB97A483F
:1032600000E07A4800E000BF00BFE9E0754F3F682A
:1032700007F0C0665EB1B6F1007F06D0B6F1806F90
:103280002FD0B6F1C06F62D155E0714861E06D4F4B
:10329000883F3F6807F48007B7F5800F09D1694F71
:1032A000083F3F6807F03F07DFF8A0C1BCFBF7F11C
:1032B00008E0644F083F3F6807F03F07DFF888C128
:1032C000BCFBF7F15F4F083F3F68C7F3881707FB68
:1032D00001F35C4F083F3F68C7F30277B3FBF7F099
:1032E00037E0584F883F3F6807F48007B7F5800FF5
:1032F00009D1544F883F3F6807F03F07DFF84CC1C2
:10330000BCFBF7F108E04F4F883F3F6807F03F07ED
:10331000DFF834C1BCFBF7F14A4F883F3F68C7F381
:10332000881707FB01F3474F883F3F68C7F30277D1
:10333000B3FBF7F00DE0434F883F3F6807F4800789
:10334000B7F5800F01D1414800E03F4801E000207F
:1033500000BF00BF74E03B4F3F6807F0C0565EB14E
:10336000B6F1006F06D0B6F1805F2FD0B6F1C05F26
:1033700062D155E0364861E0324F883F3F6807F43C
:103380008007B7F5800F09D12E4F083F3F6807F03F
:103390003F07DFF8B8C0BCFBF7F108E0294F083F52
:1033A0003F6807F03F07DFF8A0C0BCFBF7F1254FEF
:1033B000083F3F68C7F3881707FB01F3214F083F19
:1033C0003F68C7F30277B3FBF7F037E01D4F883F44
:1033D0003F6807F48007B7F5800F09D1194F883F80
:1033E0003F6807F03F07DFF864C0BCFBF7F108E077
:1033F000144F883F3F6807F03F07DFF84CC0BCFB25
:10340000F7F1104F883F3F68C7F3881707FB01F3B8
:103410000C4F883F3F68C7F30277B3FBF7F00DE02E
:10342000084F883F3F6807F48007B7F5800F01D148
:10343000064800E0044801E0002000BF00BF00BFD4
:1034400000BFF0BD8C3802400024F40000127A0066
:103450000080BB002DE9FE4F044600250026002712
:10346000A846A946AA46AB460020029001902078C3
:1034700000F0010058B1FE48006820F0C060A16B68
:103480000843FB490860A06B08B90120029020782E
:1034900000F0020002280BD1F548006820F0C0506F
:1034A000E16B0843F2490860E06B08B90120029023
:1034B000207800F00400042811D1ED48006820F4C1
:1034C0004010216B0843EA490860206BB0F5801F6B
:1034D00001D101200290206B08B9012001902078D1
:1034E00000F00800082811D1E148006820F44000ED
:1034F000616B0843DE490860606BB0F5800F01D155
:1035000001200290606B08B901200190207800F042
:10351000200020286FD100BF00200090D4484C38F4
:10352000006840F08050D2494C3908600846006875
:1035300000F08050009000BF00BFCE48006840F40B
:103540008070CC490860FEF7A1FD054607E0FEF754
:103550009DFD401B022802D90320BDE8FE8FC5480F
:10356000006800F480700028F1D0C1481C38006861
:1035700000F4407656B3B4F8400000F44070B04216
:1035800024D0BB481C38006820F440760120BA499A
:10359000086000200860B6481C380660006800F02B
:1035A000010098B1FEF772FD054608E0FEF76EFDDA
:1035B000401B41F28831884201D90320CDE7AC4855
:1035C0001C380068C0F340000028EFD000BFB4F8FA
:1035D000400000F44070B0F5407F0DD1A44884381D
:1035E000006820F4F810A54A216C11400843A04956
:1035F0008439086008E013E09D488438006820F4AE
:10360000F8109B498439086099481C380068B4F860
:103610004010C1F30B01084395491C39086000BFF5
:10362000207800F01000102803D194F85800944935
:103630000860207800F08000802809D18C4808308C
:10364000006820F44000E16C0843894908310860B3
:10365000207800F04000402809D1854808300068F3
:1036600020F08060A16C08438149083108602088FF
:1036700000F48070B0F5807F0FD17D48083000687D
:1036800020F00060616D0843794908310860606D81
:10369000B0F1006F01D101200190208800F400708A
:1036A000B0F5007F09D172480830006820F08050E2
:1036B000616C08436E4908310860208800F480601E
:1036C000B0F5806F0FD16A480830006820F00050D4
:1036D000216D0843664908310860206DB0F1005F34
:1036E00001D1012002900298012803D02068B0F592
:1036F000006F7DD1002063498866FEF7C7FC054650
:1037000006E0FEF7C3FC401B022801D9032024E792
:1037100057488C380068C0F3C0600028F1D1207889
:1037200000F0010008B1A06B30B1207800F0020079
:1037300002281ED1E06BE0B94D4808380068C0F39C
:103740000140401C47004A4808380068C0F303683D
:10375000D4E9011041EA80100121C1EB570140EA90
:10376000014040EA0861207D41EA00704049083983
:103770000860207800F00400042803D1206BB0F525
:10378000801F08D0207800F00800082829D1606B3D
:10379000B0F5800F25D1364808380068C0F30140E5
:1037A000401C4700324808380068C0F30279D4E969
:1037B000011041EA80100121C1EB570140EA0141AB
:1037C000207C41EA006040EA097029490839086014
:1037D0002748006820F01F00A16A491E08432449B9
:1037E0000860208800F48060B0F5806F23D100E08D
:1037F0005BE0206DB0F1005F1DD11D480838006806
:10380000C0F30140401C4FEA4008194808380068DE
:10381000C0F30279D4E9011041EA80110122E06885
:10382000C2EB500041EA004040EA086040EA0970FB
:103830000F4908390860208800F40060B0F5006F77
:1038400012D1D4E9011041EA80110122E068C2EBF3
:10385000500041EA0041207C41EA0061207D41EABC
:1038600000700349083908600120064988660BE0AA
:103870008C38024000700040400E4742FFFCFF0FB2
:10388000E011474200004742FEF700FC054606E013
:10389000FEF7FCFB401B022801D903205DE64148EE
:1038A0000068C0F3C0600028F2D00198012877D1E9
:1038B00000203D490867FEF7E9FB054606E0FEF7F4
:1038C000E5FB401B022801D9032046E63548006885
:1038D000C0F340700028F2D1207800F004000428E2
:1038E00001D1206B30B1207800F00800082824D1E5
:1038F000606B10BB2B4888300068C0F30140401C4F
:103900004FEA400AD4E9061041EA80100121C1EBD8
:103910005A0140EA01412420005D41EA006021494A
:1039200088310860081D006820F4F851E06A401EE4
:1039300041EA00201B498C310860208800F4807027
:10394000B0F5807F17D1606DB0F1006F13D11548CD
:1039500088300068C0F3036BD4E9061041EA801197
:103960000122206AC2EB500041EA004040EA0B60AD
:103970000C498831086001200B490867FEF786FB77
:10398000054607E0FEF782FB401B022802D9032010
:10399000E3E505E003480068C0F340700028F1D07B
:1039A0000020DAE5003802400000474270B50446C6
:1039B0000D460CB9012070BD5848006800F00F009A
:1039C000A84209D255490D700846006800F00F0062
:1039D000A84201D00120EEE7207800F00200022882
:1039E0001DD1207800F00400042805D14C4800685F
:1039F00040F4E0504A490860207800F008000828A8
:103A000005D14748006840F4604045490860444893
:103A1000006820F0F000A168084341490860207860
:103A200000F00100A8B36068012807D13C480838BD
:103A30000068C0F34040B8B90120BCE760680228C4
:103A400002D06068032807D1354808380068C0F301
:103A5000406048B90120AEE7314808380068C0F33B
:103A6000400008B90120A6E72D48006820F00300B7
:103A7000616808432A490860FEF708FB064609E02A
:103A8000FEF704FB801B41F28831884202D90320F3
:103A900091E707E02248006800F00C006168B0EB95
:103AA000810FEDD11D48006800F00F00A84209D930
:103AB0001A490D700846006800F00F00A84201D0B6
:103AC000012078E7207800F00400042807D114488A
:103AD000006820F4E050E16808431149086020784C
:103AE00000F00800082808D10D48006820F4604064
:103AF000216940EAC1000A49086000F051F808490C
:103B00000968C1F30311074A515CC84006490860BF
:103B100006480068FEF7EAFA00204CE7003C024045
:103B20000838024078B90008AC000020A40000204A
:103B30000F2202600D4A126802F0030242600B4A33
:103B4000126802F0F0028260084A126802F4E05241
:103B5000C260064A126802F46042D2080261044A56
:103B6000126802F00F020A60704700000838024035
:103B7000003C02400148006870470000AC00002093
:103B800000B5FFF7F7FF04490968C1F38221034A32
:103B9000515CC84000BD00000838024088B90008E8
:103BA0002DE9F047002400250026A146A2463F4803
:103BB000006800F00C0030B1042807D0082808D0B5
:103BC0000C286BD138E0DFF8E8A06AE0DFF8E4A069
:103BD00067E03648001F006800F03F043348001FCC
:103BE000006800F4800078B132483049091F096844
:103BF000C1F38811A0FB017001462246002338461C
:103C0000FCF75CFB05460DE029482849091F0968B7
:103C1000C1F38811A0FB0171224600233846FCF74E
:103C20004DFB05462148001F0068C0F30140401CC1
:103C30004600B5FBF6FA34E01C48001F006800F0AF
:103C40003F041A48001F006800F4800078B119484A
:103C50001649091F0968C1F38811A0FB01700146CC
:103C6000224600233846FCF729FB05460EE01048A3
:103C70000E49091F0968C1F38811A0FB01700146B4
:103C8000224600233846FCF719FB05460748001F6B
:103C90000068C0F30279B5FBF9FA02E0DFF810A082
:103CA00000BF00BF5046BDE8F08700000838024062
:103CB0000024F40000127A00F8B5044600252078AC
:103CC00000F0010000286FD0FD48006800F00C00F3
:103CD00004281BD0FA48006800F00C00082807D11F
:103CE000F748001F006800F48000B0F5800F0DD089
:103CF000F348006800F00C000C2813D1F048001FB6
:103D0000006800F48000B0F5800F0BD1EC48083853
:103D10000068C0F34040002859D06068002856D1A0
:103D20000120F8BD00BF6068B0F5803F08D1E448CD
:103D30000838006840F48030E149083908601EE026
:103D40006068B0F5A02F0DD1DD480838006840F458
:103D50008020DB49083908600846006840F480305C
:103D600008600CE0D6480838006820F48030D44958
:103D7000083908600846006820F48020086000BF09
:103D8000606890B1FEF782F9054606E0FEF77EF91D
:103D9000401B642801D90320C3E7C94808380068DC
:103DA000C0F340400028F1D011E0FEF76FF905465E
:103DB00006E0FEF76BF9401B642801D90320B0E749
:103DC000BF4808380068C0F340400028F1D120788F
:103DD00000F0020002286BD1B948006800F00C0026
:103DE000B8B1B748006800F00C00082805D1B44805
:103DF000001F006800F4800058B1B148006800F06E
:103E00000C000C281CD1AE48001F006800F4800094
:103E1000B0B9AB4808380068C0F3400020B1E06892
:103E2000012801D001207CE7A5480838006820F06F
:103E3000F800216940EAC100A1490839086037E06B
:103E4000E06800B301209F490860FEF71FF90546AE
:103E500006E0FEF71BF9401B022801D9032060E7AA
:103E6000974808380068C0F340000028F1D0944813
:103E70000838006820F0F800216940EAC100904944
:103E80000839086014E000208E490860FEF7FEF84B
:103E9000054606E0FEF7FAF8401B022801D9032088
:103EA0003FE7874808380068C0F340000028F1D198
:103EB000207800F0080008282CD16069A8B1012002
:103EC00081490860FEF7E2F8054606E0FEF7DEF8F5
:103ED000401B022801D9032023E779486C30006891
:103EE000C0F340000028F1D014E0002076490860BB
:103EF000FEF7CCF8054606E0FEF7C8F8401B02289E
:103F000001D903200DE76E486C300068C0F3400013
:103F10000028F1D1207800F00400042870D1002698
:103F200067483830006800F0805090B900BF00202A
:103F3000009063483830006840F080506049383164
:103F400008600846006800F08050009000BF00BF85
:103F500001265E48006800F48070B0B95B480068D4
:103F600040F4807059490860FEF790F8054606E075
:103F7000FEF78CF8401B022801D90320D1E65348F4
:103F8000006800F480700028F2D000BFA06801280B
:103F900008D14B486830006840F00100484968315A
:103FA00008601DE0A06805280DD14548683000680C
:103FB00040F004004249683108600846006840F05B
:103FC000010008600CE03E486830006820F0010005
:103FD0003B49683108600846006820F0040008602A
:103FE00000BFA068A8B1FEF751F8054609E0FEF74A
:103FF0004DF8401B41F28831884202D9032090E6F7
:1040000026E02F4868300068C0F340000028EED05A
:1040100013E0FEF73BF8054608E0FEF737F8401BD3
:1040200041F28831884201D903207AE62448683079
:104030000068C0F340000028EFD1012E07D12048CE
:104040003830006820F080501D493831086000BFCA
:10405000A069E8B31A48006800F00C00082862D094
:10406000A06902284AD1002016490866FEF70EF81A
:10407000054606E0FEF70AF8401B022801D9032096
:104080004FE60F4808380068C0F340600028F1D1BF
:10409000D4E907010843616A40EA81110122A06A5C
:1040A000C2EB500041EA00412C20005D41EA006172
:1040B0003020005D41EA00700149091F086008E0F6
:1040C0000838024000004742800E4742007000401E
:1040D0002BE0012016490866FDF7D8FF054606E0EB
:1040E000FDF7D4FF401B022801D9032019E611482F
:1040F0000068C0F340600028F2D016E000200C49B0
:104100000866FDF7C3FF054606E0FDF7BFFF401B4D
:10411000022801D9032004E606480068C0F3406085
:104120000028F2D101E00120FBE50020F9E50000C4
:10413000000047420038024070B50446002500BF29
:1041400094F88000012801D1022070BD012084F87C
:10415000800000BF2068006800F40030B0F5003F28
:104160002FD12068006820F4003021680860206F9B
:1041700090B194F8810012280ED1206FFDF720F93C
:1041800050B1206F406D802806D00125D4F88400FE
:1041900040F08000C4F88400606F90B194F8810012
:1041A00022280ED1606FFDF70BF950B1606F406DA2
:1041B000802806D00125D4F8840040F08000C4F89F
:1041C0008400002021680861401E21688861204623
:1041D00001F030FB2068406840F00800216848602A
:1041E000012084F8810000BF002084F8800000BF17
:1041F0002846AAE7704700002DE9F041044694F8EC
:10420000810000287ED02068456920680669206802
:10421000076805F00800082807D106F008000828FC
:1042200003D12046E16F8847D4E005F00100B8B122
:1042300006F00100A0B101202168886194F8810096
:10424000222801D1012000E002208046D4F8840019
:1042500040EA0800C4F884002046FFF7CBFFB9E02D
:1042600005F0020002280BD106F00200022807D157
:1042700021688861A06F0028D6D0A06F8047A9E090
:1042800005F0200020282AD106F02000202826D181
:1042900021688861D4F8840040F00400C4F88400E8
:1042A00007F40030B0F5003F12D1206F30B14B4819
:1042B000216F0865206FFDF7D8F88BE0606F00284C
:1042C000B2D04648616F0865606FFDF7CEF881E0B7
:1042D0002046FFF731FF2046FFF78CFF7AE005F01C
:1042E000400040282CD106F04000402828D1216809
:1042F0008861D4F8840040F00800C4F8840007F412
:10430000003000E067E0B0F5003F12D1206F30B11F
:104310003248216F0865206FFDF7A7F85AE0606FFB
:10432000002857D02D48616F0865606FFDF79DF834
:1043300050E02046FFF700FF2046FFF75BFF49E013
:1043400005F00400042832D106F0040004282ED120
:1043500021688861D4F8840040F02000C4F884000B
:1043600007F40030B0F5003F11D1206F30B11B4889
:10437000216F0865206FFDF778F82BE0606F48B378
:104380001648616F0865606FFDF76FF822E0002046
:1043900021680861401E21688861012084F881003D
:1043A0000020A4F86E002046FFF724FF12E005F07D
:1043B000100010280ED106F0100010280AD1216834
:1043C0008861D4F8840040F01000C4F884002046CE
:1043D000FFF710FF00BFBDE8F08100005157000853
:1043E0002DE9F0410446002500260027A84614B90F
:1043F0000120BDE8F08194F8810028B9002084F8FC
:104400008000204600F0BCF8022084F8810020469D
:1044100001F010FA204601F071F9206AB8B1204687
:1044200001F032FA064606EB86004100206A40029F
:10443000B1FBF0F50A20B5FBF0F16162B5FBF0F1DC
:1044400000FB1150082802D9606A401C6062606855
:1044500010B16068022808D1206C012801D1002029
:1044600001E04FF40070074606E0206C012801D1FE
:10447000400200E000200746A06830B1012807D0C4
:10448000022808D003280AD106E04FF0000807E010
:104490004FF4806804E000BF4FF4006800E000BF04
:1044A00000BF206800683449084021680860616BDB
:1044B00060680843A16B0843E16B0843384340EA56
:1044C0000800A16A08432169084361690843A18C77
:1044D00040EA0150216809680843216808602068A3
:1044E00040684EF20F01884321684860E16AA06984
:1044F0000843216B084321684968084321684860E4
:10450000206880681D49084021688860606C401EF2
:10451000616D0843E16C0843216D0843A16C491E9D
:1045200040EA012021688968084321688860206882
:10453000C0684FF2200108402168C860D4E9160124
:1045400008436421095B40EA0141206E401E41EAB4
:1045500000202168C96808432168C8600020C4F8A9
:104560008400012084F8810000BF002084F88000CE
:1045700000BF00BF3DE7000010C005FF0080F8FF4E
:1045800010B586B004462B492068884250D12A488D
:104590000068B8B900BF002000902848006840F4C7
:1045A0008000264908600846006800F480000090FA
:1045B00000BF00BF002205215720FDF739FE57201C
:1045C000FDF726FE1C480068401C1B49086070204F
:1045D0000190022002900020039002200490062007
:1045E000059001A91648FDF753FC164816490860C6
:1045F00000204860002114488160C1604FF4806150
:10460000016189004161890081618911C1610021D5
:1046100001624162FDF75EF808B1FCF74BFB00BF99
:1046200009486067846300BF00BF2067846300BFE0
:1046300006B010BD045801409C00002044380240E0
:104640000010024028640240300300202DE9F041B0
:1046500004460E46154606B115B90120BDE8F081A5
:1046600094F88100012850D100BF94F880000128FF
:1046700001D10220F2E7012084F8800000BF44F855
:10468000686FA580E5800020E061222060762048E8
:10469000E16808641F48E168C8631F48E168C864AE
:1046A0000020E1680865A38854F8687C07F11C01C4
:1046B0002268E068683CFDF783F830B100BF002055
:1046C00084F8800000BF0120C8E70021204601F0E7
:1046D000F5F82168096908432168086120680068C5
:1046E00040F40030216808602068006800F48030E1
:1046F00028B92068006840F480302168086000BF55
:10470000002084F8800000BFA8E70220A6E7000090
:1047100025580008E55700089D57000810B50446C5
:104720000448B0F8421000220348006805F002F87F
:1047300010BD0000F84C00200800002010B5044611
:10474000002211460248006804F0F4FF10BD00008A
:104750000800002070B504460D460CB9012070BD5C
:1047600094F82C0028B9002084F82D00204600F091
:1047700011F8022084F82C00211D2068FCF702FCAF
:104780002946D4E90002FCF767FC012084F82C00DC
:104790000020E4E710B50446FDF736F910BD70B50A
:1047A00004460D4694F82C00022800D170BD02206A
:1047B00084F82C0029462068FCF71EFC012084F8B0
:1047C0002C000020F2E770B504460D46164694F81A
:1047D0002C00022800D170BD022084F82C00324643
:1047E00029462068FCF70FFC2868022803D1052021
:1047F00084F82C0002E0012084F82C000020EAE775
:1048000010B504460CB9012010BD606A00B900BFA4
:104810000021A16294F8510028B9002084F85000CA
:10482000204600F033F8022084F851002068006828
:1048300020F0400021680860D4E901010843E168E4
:1048400008432169084361690843218B01F4007121
:104850000843E1690843216A0843A16A08432168C3
:1048600008600421A06901EA1040616A08432168D8
:1048700048602068C06920F400602168C861002099
:104880006065012084F851000020BDE710B586B0B6
:104890000446142101A8FBF75BFD1B4920688842F0
:1048A00030D100BF002000901848006840F400504C
:1048B000164908600846006800F40050009000BFE8
:1048C00000BF00BF0020009010481438006840F07E
:1048D00040000E49143908600846006800F04000A6
:1048E000009000BF00BF4FF4605001900220029082
:1048F00000200390032004900620059001A904489D
:10490000FDF7C6FA06B010BD00340140443802403D
:10491000001802402DE9FF5F0446884691461D4677
:104920000E9E012002900020019000BF94F85000DC
:10493000012803D1022004B0BDE8F09F012084F8D3
:10494000500000BFFDF7A2FB074694F851B0606825
:104950000390AA46BBF1010F0BD00398B0F5827FFC
:1049600004D1A06810B9BBF1040F02D0022001905D
:10497000DBE0B8F1000F03D0B9F1000F00D015B99A
:1049800001200190D1E094F85100042802D00520C4
:1049900084F8510000206065C4F83890E587A58749
:1049A000C4F83080E586A5862064606420680068CD
:1049B00000F04000402805D02068006840F040002A
:1049C00021680860E068B0F5006F4AD1606810B1F6
:1049D000BAF1010F09D1206B00882168C860206BF3
:1049E000801C2063E08E401EE08633E020688068F3
:1049F00000F00200022810D1E08E70B10298012868
:104A00000BD1206B00882168C860206B801C20635C
:104A1000E08E401EE086002002902068806800F052
:104A2000010068B1E08F58B12068C068A16B0880B0
:104A3000A06B801CA063E08F401EE08701200290E5
:104A4000FDF724FBC01BB04204D3701C10B103203F
:104A500001906AE0E08E0028C8D1E08F0028C5D11F
:104A60004AE0606810B1BAF1010F09D1206B0078FB
:104A700021680873206B401C2063E08E401EE08696
:104A800034E02068806800F00200022810D1E08E37
:104A900070B1029801280BD1206B0078216808734F
:104AA000206B401C2063E08E401EE08600200290B8
:104AB0002068806800F0010068B1E08F58B120687C
:104AC000C068A16B0870A06B401CA063E08F401E03
:104AD000E08701200290FDF7D9FAC01BB04201D354
:104AE000701C00B916B9032001901EE0E08E00286A
:104AF000C7D1E08F0028C4D13A463146204600F0A5
:104B000043FF20B101200190202060650DE0A068E6
:104B100050B900BF002000902068C0680090206855
:104B20008068009000BF00BF00BF012084F85100E2
:104B300000BF002084F8500000BF0198FBE67047DA
:104B40007047000030B502460B4600BF92F83C00AB
:104B5000012801D1022030BD012082F83C0000BFB5
:104B6000022082F83D00106844681068816824F0D3
:104B700070041868044310684460184D1068A84217
:104B80001BD01068B0F1804F17D0154D1068A842A7
:104B900013D0144D1068A8420FD0134D1068A842CE
:104BA0000BD0124D1068A84207D0114D1068A842D2
:104BB00003D0104D1068A84205D121F0800158683B
:104BC000014310688160012082F83D0000BF002091
:104BD00082F83C0000BF00BFBDE7000000000140BC
:104BE0000004004000080040000C004000040140A8
:104BF000004001400018004010B504460CB90120E7
:104C000010BD94F83D0028B9002084F83C002046EF
:104C100000F00CF8022084F83D00211D206801F00E
:104C20003DF8012084F83D000020E9E710B586B08A
:104C30000446142101A8FBF78BFB1A49206888421F
:104C40002ED100BF002000901748006840F00800F7
:104C5000154908600846006800F00800009000BF91
:104C600000BF00BF002000900F481038006840F0DF
:104C700001000D49103908600846006800F0010085
:104C8000009000BF00BF0120019002200290002090
:104C9000039004900220059001A90448FDF7F8F85C
:104CA00006B010BD000C0040403802400000024039
:104CB0000146022081F83D000868806800F0070284
:104CC000062A05D00868006840F001000B681860EB
:104CD000012081F83D000020704701460868C06847
:104CE00040F001000B68D8600868806800F0070297
:104CF000062A05D00868006840F001000B681860BB
:104D0000002070470146022081F83D0000BF08687E
:104D1000006A41F21112104050B90868006A9210FE
:104D2000104028B90868006820F001000A68106087
:104D300000BF012081F83D0000207047704710B58A
:104D4000044620680069C0F34000D8B12068C068FC
:104D5000C0F34000B0B16FF002002168086101208B
:104D600020772068806900F0030018B12046FFF723
:104D7000E5FF05E0204600F0ADF8204600F0ABF876
:104D80000020207720680069C0F38000D8B1206837
:104D9000C068C0F38000B0B16FF004002168086102
:104DA000022020772068806900F4407018B1204606
:104DB000FFF7C4FF05E0204600F08CF8204600F025
:104DC0008AF80020207720680069C0F3C000D8B1BD
:104DD0002068C068C0F3C000B0B16FF0080021685F
:104DE0000861042020772068C06900F0030018B132
:104DF0002046FFF7A3FF05E0204600F06BF82046B1
:104E000000F069F80020207720680069C0F30010E6
:104E1000D8B12068C068C0F30010B0B16FF01000C6
:104E200021680861082020772068C06900F440707C
:104E300018B12046FFF782FF05E0204600F04AF84F
:104E4000204600F048F8002020772068006900F034
:104E5000010058B12068C06800F0010030B16FF067
:104E6000010021680861204600F036F820680069DA
:104E7000C0F3C01058B12068C068C0F3C01030B192
:104E80006FF08000216808612046FFF758FE206817
:104E90000069C0F3801058B12068C068C0F380106A
:104EA00030B16FF0400021680861204600F056F8EC
:104EB00020680069C0F3401058B12068C068C0F392
:104EC000401030B16FF02000216808612046FFF7E4
:104ED00037FE10BD7047704710B50446034920687F
:104EE000884201D1FDF7D8F810BD00000010004045
:104EF00070B504460D4600BF94F83C00012801D16E
:104F0000022070BD012084F83C0000BF022084F81C
:104F10003D002946204600F038FF48B1012084F8C2
:104F20003D0000BF002084F83C0000BF0120E8E7FE
:104F30002068C06820F040002168C8602068C06810
:104F400020F480402168C860012084F83D0000BF43
:104F5000002084F83C0000BF00BFD2E7704700BFCC
:104F6000FEE730B50B46002100BF16E00A24B4EB83
:104F7000107F05D9302404EB107403F8114005E0CC
:104F8000412404EB10740A3C03F811400001002591
:104F90004C00641C1D554C1CE1B29142E6DB30BD57
:104FA00008B500BF002000900A48006840F4800067
:104FB000084908600846006800F48000009000BFBF
:104FC00000BF002205213920FDF732F93920FDF715
:104FD0001FF908BD3038024000B587B01C21684673
:104FE000FBF7B6F91848194908600120486000210C
:104FF000164881600421C160102101614021416196
:105000004FF4C07181610021C1614FF440610162C0
:10501000002141624FF4005181620220009007207C
:1050200001900420029007200390032004900220A6
:105030000590069069460548FFF78CFB08B1FBF721
:1050400039FE07B000BD0000400100A02804002088
:1050500010B50E480E4908600E48486000210C4803
:1050600081600121C1600021016141618161C161F3
:105070000162FCF787FD08B1FBF71CFE0021044824
:10508000FCF74AFD08B1FBF715FE10BD00600040BB
:105090005C0200205539302000B587B0142102A8E9
:1050A000FBF756F900BF002001907C48006840F0F3
:1050B00010007A4908600846006800F0100001906E
:1050C00000BF00BF00BF002001900846006840F00C
:1050D000010008600846006800F00100019000BF70
:1050E00000BF00BF002001900846006840F00200A9
:1050F00008600846006800F00200019000BF00BF91
:1051000000BF002001900846006840F040000860A1
:105110000846006800F04000019000BF00BF00BFDB
:10512000002001900846006840F020000860084612
:10513000006800F02000019000BF00BF00BF002009
:1051400001900846006840F080000860084600684A
:1051500000F08000019000BF00BF00BF0020019060
:105160000846006840F0080008600846006800F043
:105170000800019000BF00BF00BF0020019008465A
:10518000006840F0040008600846006800F0040071
:10519000019000BF00BF012208214148FCF770FFC9
:1051A000012291033F48FCF76BFF002240F2567149
:1051B0003D48FCF765FF00224FF480613B48FCF757
:1051C0005FFF012240213A48FCF75AFF00220221EA
:1051D0003748FCF755FF00224FF480413548FCF773
:1051E0004FFF0122D1033348FCF74AFF0820029009
:1051F0000120039000200490059002A92848FCF7A4
:1052000047FE4FF4004002902B480390002004908A
:1052100002A92548FCF73CFE4FF480400290012093
:10522000039000200490059002A91E48FCF730FE70
:1052300040F25670029001200390002004900590E7
:1052400002A91948FCF724FE4FF480600290012067
:10525000039000200490059002A91448FCF718FE62
:10526000422002900120039000200490059002A9A2
:105270000F48FCF70DFE4FF44040029001200390D0
:1052800000200490059002A90A48FCF701FE0022C4
:1052900005212820FCF7CCFF07B000BD30380240C4
:1052A00000100240001802400000024000140240BA
:1052B00000080240000402400000111010B51B4815
:1052C0001B49086000211A484163032018494860BF
:1052D000E021174881630021C1630121016400219D
:1052E00081600161042181610021C1608162C1622C
:1052F0001021016380200E49486401210C4881641B
:105300000021C164016541650020094988650021CB
:105310000748C165042101664FF6FF714166FFF73A
:105320005FF808B1FBF7C6FC10BD0000045801404F
:10533000A802002010B50E480E4908604FF4827094
:10534000486000210B488160C160016141614FF4F8
:10535000007181611821C161002101624162816295
:105360000A21C162FFF74CFA08B1FBF7A3FC10BD9C
:10537000003401409003002000B587B0142102A83A
:10538000FAF7E6FF002000900190174817490860DF
:10539000002048600021154881604FF6FF71C16010
:1053A000002101618161FFF727FC08B1FBF782FC56
:1053B00007200290502003900020049001200690C6
:1053C00002A90A48FFF794FD08B1FBF773FC00201F
:1053D0000090019069460548FFF7B4FB08B1FBF760
:1053E00069FC07B000BD0000000C0040E80300208D
:1053F00010B501220D490E4801F014FA08B1FBF76F
:1054000059FC0C490A4801F0B1FC08B1FBF752FC09
:105410000949074800F075FE08B1FBF74BFC04484A
:1054200001F082FD08B1FBF745FC10BD140000201F
:10543000C01200204C0100207C00002000BFFEE7CD
:105440007047000010B50248FDF74CF910BD000090
:10545000901500202DE9F04704460D462668374692
:10546000D6F8408007F5306000EB4510D0F8089082
:10547000104880450BD909F40040B0F5004F06D123
:105480004FF4004107F5306000EB45108160204685
:10549000FDF79FFD0748804508D92069012805D1FF
:1054A00004F571720121206802F076FA0020BDE84F
:1054B000F08700000A30544F2DE9F04705460C46AE
:1054C000D5F800804646D8F8409006F5306000EBED
:1054D000441087682869012873D107F0080008285C
:1054E0000FD1524881450BD907F40040B0F5004F69
:1054F00006D14FF4004106F5306000EB44108160A6
:1055000091E007F02000202806D1202106F5306028
:1055100000EB4410816086E007F0280000280ED1DF
:10552000424881450CD907F40040B0F5004F07D13F
:105530004FF4004106F5306000EB4410816072E0EA
:10554000C4EBC40105F5FE7000EB8100816806F52F
:10555000306000EB44100069C0F31200091AC4EB7C
:10556000C40205F5FE7000EB82008161C4EBC4014A
:1055700005F5FE7000EB8100C4EBC402C16805F5BF
:10558000FE7000EB820080680144C4EBC40205F5A4
:10559000FE7000EB8200C1606CB9C4EBC40105F57C
:1055A000FE7000EB8100406928B905F57172012198
:1055B000286802F0F1F9E1B22846FCF71AFF32E060
:1055C000FFE71B4881451BD107F40040B0F5004FB1
:1055D00007D14FF4004106F5306000EB44108160C4
:1055E00021E007F02000202805D1202106F53060B9
:1055F00000EB44108160E1B22846FCF7FAFE12E0AD
:105600006CB9C4EBC40105F5FE7000EB8100406984
:1056100028B905F571720021286802F0BDF9E1B2E0
:105620002846FCF7E6FE0020BDE8F0870A30544F1C
:105630000A31544F2DE9F84F07460E46D7F800902F
:10564000C846C6EBC60107F13C0000EB8104D4E973
:105650000510884202D90120BDE8F88FD4E9050180
:10566000451AA068A84200D2A568E81C4FEA900A33
:1056700017E0D4E90501451AA068A84200D2A56840
:10568000E81C4FEA900A387CABB2F2B20090484670
:10569000E16802F03BFDE0682844E060A06928442E
:1056A000A06108F5106000EB4610806980B250459B
:1056B00006D3D4E90510884202D260690028D8D107
:1056C000D4E9050188420ED806F00F01012000FA46
:1056D00001FB40F6340050F8080020EA0B0040F6C9
:1056E000340141F808000020B6E7000010B5024878
:1056F000FEF782FD10BD0000A80200200146CA6826
:1057000022B1012A04D0022A06D103E0002005E0DC
:10571000102003E0202001E0002000BF00BF8A68C5
:10572000032A01D140F00100074B0A689A4204D0D5
:10573000054B20330A689A4203D1034A121F1060B6
:1057400001E0024A1060704704580140005C0140CB
:1057500070B50546AC6B2068006820F40030216805
:105760000860002021680861401E21688861D4F823
:105770008400202808D0204600F05CF820684068AB
:1057800040F0080021684860012084F88100002072
:10579000A4F86E002046FEF72DFD70BD70B50546DD
:1057A000AC6BD4F8840040F08000C4F88400206F13
:1057B000406D012803D0606F406D01280ED1206834
:1057C000006820F4003021680860204600F032F8BC
:1057D000012084F881000020A4F86E002046FEF726
:1057E00009FD70BD70B50546AC6BE869B0F5807F0A
:1057F00014D02068006820F4003021680860002080
:10580000A4F86E000021204600F058F821680969CC
:10581000814320680161012084F881002046FEF761
:105820007DFF70BD70B50446A56B2846FEF786FF68
:1058300070BD000010B50146124B1B680724B3FB76
:10584000F4F34FF47A74B3FBF4F39A0000200B687E
:105850001B6823F480330C68236000BF131EA2F181
:10586000010207D1D1F8843043F04003C1F88430FD
:10587000032005E00B681B6803F48033002BEDD197
:1058800000BF10BDAC00002070B5044600250A49D9
:105890002068884204D0084920312068884204D119
:1058A0000420FDF725FC054603E00820FDF720FC59
:1058B0000546284670BD00000458014002460120FC
:1058C000012901D140F00800536B082B07D1536820
:1058D000032B02D05368012B01D140F01000536814
:1058E000032B02D05368022B02D140F0600001E08C
:1058F00040F00400704738B505460C460020009083
:1059000001202060082060600120A0600020E0608D
:105910004FF4805221462846FEF755FF6420FBF7DE
:1059200099FF02202060082060600120A060002014
:10593000E0604FF4805221462846FEF744FF0320E2
:105940002060082060600420A0600020E0604FF428
:10595000805221462846FEF736FF40F23120009063
:1059600004202060082060600120A0600098E060B2
:105970004FF4805221462846FEF725FF40F26A5137
:105980002846FEF70CFF38BD7CB504460D4616468A
:10599000164800681821B0FBF1F01549B0FBF1F092
:1059A0004FF47A71484301906068B0F5827F0DD161
:1059B0002B46002280212046009600F01BF898B16B
:1059C000606D40F02000606503207CBD00BF019841
:1059D00000B908E00198401E019020688068C0F37B
:1059E000C0100028F3D100BF0020EEE7AC0000207B
:1059F00040420F002DE9F04104460E4617461D4671
:105A0000DDF818803EE0681CD8B3FCF73FFBA0EB44
:105A10000800A84200D2A5BB2068406820F0E00042
:105A2000216848606068B0F5827F0DD1A068B0F54C
:105A3000004F03D0A068B0F5806F05D120680068E2
:105A400020F0400021680860A06AB0F5005F0DD129
:105A500000BF2068006820F40050216808602068BA
:105A6000006840F400502168086000BF012084F8FD
:105A7000510000BF002084F8500000BF0320BDE8A3
:105A8000F081FFE7206880683040B04201D10120FA
:105A900000E00020B842B6D10020F0E730B5014662
:105AA0000A461378521C147843EA042030BD0000E3
:105AB000FFF79EFCFAF7A4FF04F07EFB03F0F4F876
:105AC00003F060FC00BF4FF0FF310C48006803F0AA
:105AD000AFFE0B4800680028F5D00A48008800286F
